{
  "contractName": "energy_management",
  "abi": [
    {
      "constant": true,
      "inputs": [],
      "name": "current_available_energy",
      "outputs": [
        {
          "name": "",
          "type": "uint256"
        }
      ],
      "payable": false,
      "stateMutability": "view",
      "type": "function",
      "signature": "0x62f62760"
    },
    {
      "constant": true,
      "inputs": [],
      "name": "min_price",
      "outputs": [
        {
          "name": "",
          "type": "uint256"
        }
      ],
      "payable": false,
      "stateMutability": "view",
      "type": "function",
      "signature": "0xc3ab5fb4"
    },
    {
      "constant": true,
      "inputs": [],
      "name": "current_price",
      "outputs": [
        {
          "name": "",
          "type": "uint256"
        }
      ],
      "payable": false,
      "stateMutability": "pure",
      "type": "function",
      "signature": "0xab2b3137"
    },
    {
      "constant": true,
      "inputs": [
        {
          "name": "prosumer",
          "type": "address"
        }
      ],
      "name": "display_wallet",
      "outputs": [
        {
          "name": "",
          "type": "uint256"
        }
      ],
      "payable": false,
      "stateMutability": "view",
      "type": "function",
      "signature": "0xc2879623"
    },
    {
      "constant": false,
      "inputs": [
        {
          "name": "prosumer",
          "type": "address"
        },
        {
          "name": "amount",
          "type": "uint256"
        }
      ],
      "name": "sell_energy",
      "outputs": [
        {
          "name": "",
          "type": "uint256"
        }
      ],
      "payable": false,
      "stateMutability": "nonpayable",
      "type": "function",
      "signature": "0x46ac685d"
    },
    {
      "constant": false,
      "inputs": [
        {
          "name": "prosumer",
          "type": "address"
        },
        {
          "name": "amount",
          "type": "uint256"
        }
      ],
      "name": "buy_energy",
      "outputs": [],
      "payable": false,
      "stateMutability": "nonpayable",
      "type": "function",
      "signature": "0x4ccfc4ea"
    }
  ],
  "bytecode": "0x6080604052606460005534801561001557600080fd5b5061027c806100256000396000f3fe6080604052600436106100775763ffffffff7c010000000000000000000000000000000000000000000000000000000060003504166346ac685d811461007c5780634ccfc4ea146100c757806362f6276014610102578063ab2b313714610117578063c28796231461012c578063c3ab5fb41461015f575b600080fd5b34801561008857600080fd5b506100b56004803603604081101561009f57600080fd5b50600160a060020a038135169060200135610174565b60408051918252519081900360200190f35b3480156100d357600080fd5b50610100600480360360408110156100ea57600080fd5b50600160a060020a0381351690602001356101b0565b005b34801561010e57600080fd5b506100b5610225565b34801561012357600080fd5b506100b561022b565b34801561013857600080fd5b506100b56004803603602081101561014f57600080fd5b5035600160a060020a0316610230565b34801561016b57600080fd5b506100b561024b565b60008061017f61022b565b600160a060020a03851660009081526001602052604081208054928602928301905580548501905591505092915050565b8181806101bb61022b565b600160a060020a0384166000908152600160205260409020549102118015906101e5575080600054115b15156101f057600080fd5b6101f861022b565b600160a060020a039094166000908152600160205260408120805495850290950390945550508154039055565b60005481565b600a90565b600160a060020a031660009081526001602052604090205490565b600a8156fea165627a7a72305820e9b7c4ebf2910499dd269b7488244c2f4a08dd18b609ca9db1b27dcfb5b031c80029",
  "source": "pragma solidity ^0.5.0 ;\n\ncontract energy_management{\n    \n    uint public current_available_energy = 100 ;\n    uint public constant min_price = 10;\n    \n    mapping(address => uint) wallet ;\n    \n    function current_price() public pure returns(uint){\n        return min_price;\n    }\n    \n    function display_wallet(address prosumer) external view returns(uint){\n        return wallet[prosumer] ;\n    }\n    \n    function sell_energy(address prosumer, uint amount) external returns(uint){\n        uint sold_for = amount * current_price() ;\n        wallet[prosumer] += sold_for ;\n        current_available_energy += amount ;\n        return sold_for ;\n    }\n    \n    modifier can_buy_energy(address prosumer, uint amount){\n        require(wallet[prosumer] >= current_price() * amount && current_available_energy>amount) ;\n        _;\n    }\n    \n    function buy_energy(address prosumer, uint amount) external\n    can_buy_energy(prosumer, amount){\n        wallet[prosumer] -= amount*current_price();\n        current_available_energy -= amount ;\n    }\n}\n",
  "sourcePath": "/home/vivek/eth-my-proj/contracts/energy_management.sol",
  "compiler": {
    "name": "solc",
    "version": "0.5.0+commit.1d4f565a.Emscripten.clang"
  },
  "schemaVersion": "3.0.1",
  "updatedAt": "2021-08-31T03:46:27.566Z",
  "devdoc": {
    "methods": {}
  },
  "userdoc": {
    "methods": {}
  }
}